:020000040000fa
:080000000002040000000000f2
:020000040000fa
:100400000f822000aefe20000e01880000000000d8
:10041000000020000000e000020032000001200087
:10042000200288000c000700205d20000100200051
:1004300011000700000020000000e0000200320070
:100440000000020000000000f604020000000000ae
:100450000040da000000fe004440a9000000200037
:100460000000e0000300320000002000a00188002e
:100470004440a80000000600910188008000780038
:100480000000eb0015003700e280400032a0b4000d
:100490009101ba00e280400032a0b4009102ba009b
:1004a000e280400032a0b4000002eb00472bde00e7
:1004b000f507b200602ce10004003a000059eb009f
:1004c0008301e900fdff3e00040037006128e100e0
:1004d000010032000082eb00040007001101ba00a5
:1004e0000200e000e8ff3a00000006003159ba00bf
:1004f0008301e9000c0032002159ba008301e900b0
:10050000080032000400e00003003a00e2804000ee
:1005100032a0b400f5ff370011d9ba008301e90019
:10052000faff3a008100e800e180400032a0b40008
:1005300000000600801f7800841f78000000fa0089
:10054000944080000402e800944088008460a90080
:100550000080fa004f0278004f007800004006004b
:100560000040da000000fe00811f7800801f780044
:10057000014e23004000b000010878004f007800d1
:10058000801f7800100090000018eb000018eb00ae
:100590000018eb0001187800010878004f0078007f
:1005a000cf0078000000060000a0fe00841f780045
:1005b000851f7800881f78008a1f7800000490004b
:1005c00010059000a000900030019000c001900044
:1005d000aa0590003b0598009a0590002b0598000d
:1005e0009a0578001b0598000380ca000200ca0023
:1005f00000b0cb001a80cd001201c3000000cb0078
:100600000000cb0038027800ba0278004604c0002f
:100610000580ca000030cb004604c0000580ca0037
:100620000030cb000030cb004604c0000580ca007b
:100630000000cb004604c0000580ca000000cb00cb
:100640000000cb004604c0000580ca000030cb008b
:100650000030cb001a04c0001201c0000100cd0020
:10066000f2ff23000288e600820078008204200066
:100670000208e600820078009a0590002b05980099
:100680009a0578001b059800010d7800210098005c
:100690004f0578004f047800cf0278004f027800b1
:0806a0000080fe0000000600ce
:020000040000fa
:0200000401f009
:04000c00f8ff0000f9
:020000040000fa
:0200000401f009
:040010007bff000072
:020000040000fa
:0200000401f009
:040014007fff00006a
:020000040000fa
:0200000401f009
:04001800ffff0000e6
:020000040000fa
:0200000401f009
:04001c00deff000003
:020000040000fa
:10000800b0020000b0020000b0020000b002000020
:10001800b0020000b0020000b0020000b002000010
:10002800b0020000b0020000b00200009a02000016
:10003800b0020000b0020000b0020000b0020000f0
:10004800b0020000b0020000b0020000b0020000e0
:10005800b0020000b0020000b0020000b0020000d0
:10006800b0020000b0020000b0020000b0020000c0
:10007800b0020000b0020000b0020000b0020000b0
:10008800b0020000b0020000b0020000b0020000a0
:10009800b0020000b0020000b0020000b002000090
:1000a800b0020000b0020000b0020000b002000080
:1000b800b0020000b0020000b0020000b002000070
:1000c800b0020000b0020000b0020000b002000060
:1000d800b0020000b0020000b0020000b002000050
:1000e800b0020000b0020000b0020000b002000040
:1000f800b0020000b0020000b0020000b002000030
:10010800b0020000b0020000b0020000b00200001f
:10011800b0020000b0020000b0020000b00200000f
:10012800b0020000b0020000b0020000b0020000ff
:10013800b0020000b0020000b0020000b0020000ef
:10014800b0020000b0020000b0020000b0020000df
:10015800b0020000b0020000b0020000b0020000cf
:10016800b0020000b0020000b0020000b0020000bf
:10017800b0020000b0020000b0020000b0020000af
:10018800b0020000b0020000b0020000b00200009f
:10019800b0020000b0020000b0020000b00200008f
:1001a800b0020000b0020000b0020000b00200007f
:1001b800b0020000b0020000b0020000b00200006f
:1001c800b0020000b0020000b0020000b00200005f
:1001d800b0020000b0020000b00200007c05000080
:1001e800b0020000b0020000b0020000b00200003f
:0801f800b0020000b00200009b
:020000040000fa
:10020800b0020000b0020000b0020000b00200001e
:10021800b0020000b0020000b0020000b00200000e
:10022800b0020000b0020000b00200009a02000014
:10023800b0020000b0020000b0020000b0020000ee
:10024800b0020000b0020000b0020000b0020000de
:10025800b0020000b0020000b0020000b0020000ce
:10026800b0020000b0020000b0020000b0020000be
:10027800b0020000b0020000b0020000b0020000ae
:10028800b0020000b0020000b0020000b00200009e
:10029800b0020000b0020000b0020000b00200008e
:1002a800b0020000b0020000b0020000b00200007e
:1002b800b0020000b0020000b0020000b00200006e
:1002c800b0020000b0020000b0020000b00200005e
:1002d800b0020000b0020000b0020000b00200004e
:1002e800b0020000b0020000b0020000b00200003e
:1002f800b0020000b0020000b0020000b00200002e
:10030800b0020000b0020000b0020000b00200001d
:10031800b0020000b0020000b0020000b00200000d
:10032800b0020000b0020000b0020000b0020000fd
:10033800b0020000b0020000b0020000b0020000ed
:10034800b0020000b0020000b0020000b0020000dd
:10035800b0020000b0020000b0020000b0020000cd
:10036800b0020000b0020000b0020000b0020000bd
:10037800b0020000b0020000b0020000b0020000ad
:10038800b0020000b0020000b0020000b00200009d
:10039800b0020000b0020000b0020000b00200008d
:1003a800b0020000b0020000b0020000b00200007d
:1003b800b0020000b0020000b0020000b00200006d
:1003c800b0020000b0020000b0020000b00200005d
:1003d800b0020000b0020000b00200007c0500007e
:1003e800b0020000b0020000b0020000b00200003d
:0803f800b0020000b002000099
:020000040000fa
:1006a8000000fa0014002a00042a88000002eb0067
:1006b800042088000002eb001420880023e4a8002e
:1006c80023c4a8001421800004a0a10004b0a10044
:1006d8001421880023a4a9002384a9002324a900a5
:1006e8002304a900142180000460a1000470a10063
:1006f80014218800142180000440a1000450a100a6
:10070800142188002104a9002004a90004218000e4
:100718000460a1000470a100042188002004a9003d
:100728002124a900d5358000f40f2c0084826200b2
:100738000410220005027200d43588008537800035
:10074800f40f2c00848262000470220005027200fb
:10075800843788003be4a8003bc4a8003b64a80099
:100768003b44a900d521800074c02f008482620018
:10077800040f200005027200d42188002421800083
:100788000400a0000410a100242188002444a9002a
:100798002521800074f02f00048262002421880043
:1007a800a421800004c0a00004d0a10004e0a1009e
:1007b80004f0a100a4218800a521800004fc2f00da
:1007c80004826200a421880044b4200034218800f7
:1007d8004406200094218800c062a900c082a900b4
:1007e8000080fa00000006000000fa000103a900da
:1007f80000e3a90000c3a80000a3a9000418800012
:100808000400a1000410a0000420a100041888001e
:10081800a1e0a80091e0a900d406800004c0a000cf
:1008280004d0a10004e0a000d40688000243a90077
:100838000263a9000283a9000623a9000be3a8000c
:1008480055188000f40f2e008482620004502000a6
:1008580005027200541888000643a9000ce3a90099
:100868006518800004fe2f00048262000410a000b6
:10087800641888000080fa00000006000000fa00f2
:100888000480200024408800a4ff20003440880011
:10089800448020000400780031ff070024408000d5
:1008a800650f2000050a7800244080000482e800d3
:1008b80035f62f00050a7800148f2600644088005a
:1008c8000080fa000000060000a0fe00841f7800e7
:1008d800851f7800871f78004400f800c462a800cc
:1008e800080f20002802880025db25000cc3af0074
:1008f800feff3700441980004522dd001201c300c5
:100908001201c0000300cd00428020003202900096
:100918000480ca0000b0cb000480cd00110009009b
:100928000382d800e04088008101780011000900a6
:100938000418d900d0408800e74080001700b000b4
:100948008782cf002500b100853bdd00d4408000c0
:10095800f3002000858151000322de000482730029
:10096800130020008519dd00110009000418d900c2
:100978000000e00001003d00c462a800c0408800fb
:10098800d4408000c54080001201c3001201c0009d
:100998000000cd00e44080000580ca001201c300b9
:1009a8000402e900020033000000cb00fcff37001e
:1009b8000080ca000000cb000000cd006001980054
:1009c8001408a9000643a900c462a9004400f9005c
:1009d800cf037800cf0278004f0278000080fe0035
:1009e800000006000000fa0094022000343a880053
:1009f800243a80000460a1000470a100243a880011
:100a0800253a800004fe2f0004826200243a880000
:100a18001600200084072000a50920003774200054
:100a2800844b7800854b7800864b780016002000b0
:100a3800640420007505200027742000844b78008a
:100a4800854b7800864b780000000000153a80003e
:100a5800040027008482620004002100848f520071
:100a6800faff3a0000000000153a80000402200056
:100a780004826200e00f5200fbff320050c7a8005a
:100a880051a7a800843a80000480a0000490a00028
:100a980004a0a000843a880051e7a80000000000e4
:100aa800853a80000400240004826200e00f5200ae
:100ab800fbff32003437220024208800f8fe0700ac
:100ac80049ff07006dff070001e4a80001e3a80043
:100ad8000100370000000000a4408000e10f520030
:100ae800fcff3a000002eb00a4408800faff370040
:100af80000a0fe00841f7800851f78004400f800dd
:100b0800080f20002802880040802000cd82a8001d
:100b180021198000c608dd005100980031198000b5
:100b2800c508dd0031009800d40202000000000072
:100b3800200190000b0037000200ca00d00190008d
:100b48000380ca000030cb000400cd001201c300ae
:100b5800e00290001201c0000280ca0000b0cb0081
:100b68000280cd00810420000110e6000101780018
:100b78004511de00122a8800cd82a9001408a800b9
:100b88000623a90091e0a9004400f900cf027800eb
:0c0b98004f0278000080fe0000400600c4
:020000040000fa
:100ba4001208000002000000000000001408000009
:100bb4000200000000000000040800000e00000015
:100bc4000000000000080000040000000000000015
:100bd400fa0f0000060000000000000016080000e4
:0c0be4000a0000000000000000000000fb
:00000001FF
